{
  "contractName": "PintToken",
  "abi": [
    {
      "constant": true,
      "inputs": [],
      "name": "totalSupply",
      "outputs": [
        {
          "name": "",
          "type": "uint256"
        }
      ],
      "payable": false,
      "stateMutability": "view",
      "type": "function"
    },
    {
      "inputs": [],
      "payable": false,
      "stateMutability": "nonpayable",
      "type": "constructor"
    }
  ],
  "bytecode": "0x60606040523415600e57600080fd5b620f4240600081905550609c806100266000396000f300606060405260043610603f576000357c0100000000000000000000000000000000000000000000000000000000900463ffffffff16806318160ddd146044575b600080fd5b3415604e57600080fd5b6054606a565b6040518082815260200191505060405180910390f35b600054815600a165627a7a723058204381873313679cb449e2329b386ca001b4f5133f1a83707cff4956555325ca910029",
  "source": "pragma solidity ^0.4.2;\n\ncontract PintToken {\n\n    uint256 public totalSupply;\n\n    function PintToken () public {\n        totalSupply = 1000000;\n    }\n}\n",
  "sourcePath": "/Users/ciccio/code/pint_token/contracts/PintToken.sol",
  "compiler": {
    "name": "solc",
    "version": "0.4.18+commit.9cf6e910.Emscripten.clang"
  },
  "schemaVersion": "1.0.1",
  "updatedAt": "2018-04-15T13:54:24.390Z"
}